:020000040800F2
:10000000901B0020A9010008D52F00089F2A000896
:1000100000000000000000000000000000000000E0
:10002000000000000000000000000000D92F0008C0
:100030000000000000000000D72F0008DB2F0008A0
:1000400025370008BB010008BB010008BB01000800
:10005000BB010008BB010008BB010008BB01000890
:10006000BB010008BB010008BB010008BB01000880
:10007000BB0100085D300008BB010008BB0100089F
:10008000BB010008BB01000800000000BB01000824
:10009000BB010008BB010008BB010008BB01000850
:1000A000BB010008BB010008BB01000805370008C0
:1000B0001537000800000000BB01000800F002F83E
:1000C00000F046F80CA030C8083824182D18A246B5
:1000D000671EAB4654465D46AC4201D100F038F88D
:1000E0007E460F3E0FCCB6460126334200D0FB1AA7
:1000F000A246AB4633431847C8880000E888000092
:100100000023002400250026103A01D378C1FBD833
:10011000520700D330C100D50B60704710B5642979
:1001200002D100F053F910BD632902D100F090FB19
:1001300010BD002010BD1FB500F060FC04000020C1
:10014000002108F01BFC401C60601FBD10B510BDF5
:1001500000F035FC1146FFF7EEFF06F0A5F900F0C0
:1001600060FC03B4FFF7F2FF03BC00F0A7FC000043
:1001700070B505460C46164602E00FCC0FC5103E82
:10018000102EFAD2082E02D303CC03C5083E042E4B
:1001900007D301CC01C5361F03E021782970641C08
:1001A0006D1C761EF9D270BD07488047074800478E
:1001B000FEE7FEE7FEE7FEE7FEE7FEE70448054947
:1001C000054A064B704700005B300008BD00000880
:1001D00090150020901B0020901700209017002001
:1001E000FEB5054610460C46184373D0AE468C4605
:1001F0000020AD1A01469C4167D3664600270124C2
:100200003D46B61A9D4102D313463A46212465461F
:1002100076462F04360C3E432D0CB61A9D4104D36E
:10022000150C1B042B4312041034654676462F062A
:10023000360A3E432D0AB61A9D4104D3150E1B0201
:100240002B4312020834654676462F0736093E4393
:100250002D09B61A9D4104D3150F1B012B43120122
:10026000241D65467646AF07B6083E43AD08B61A6C
:100270009D4104D3950F9B002B439200A41C65461F
:100280007646EF0776083E436D08B61A9D411AD3AD
:1002900092185B41641C16E0001876466546494199
:1002A000B71A9D410191009009D36046B11A984157
:1002B0008E468446009801990025401C6941DD075F
:1002C00052082A435B08641EE6D57246634603B0B3
:1002D000F0BDFFE700200146C046C0462A4623463F
:1002E000F5E700000FB41CB5074B06AA7B4469462E
:1002F0000090059800F089FA0020694600F098FA0D
:100300001CBC08BC04B0184741050000F8B50E46F7
:100310000446002020622046E1688847002829D052
:10032000252802D06268A16820E0E1682046002705
:10033000884705001ED028464138192802D80127D1
:10034000FF0220353246204627602946FFF7E6FEA9
:10035000002808D0012804D0F61DF608F60008365B
:10036000D9E7361DD7E762682846A1689047206A1A
:10037000401CCFE7206AF8BD70B50C460546012A3F
:1003800005D02878800600D5EA69002302E0012321
:1003900005E05B1C934202D2E05C0028F9D1A86919
:1003A000E618C01AA861286AC01828622846C04604
:1003B000C04604E06A682078A968641C9047B4428B
:1003C000F8D32846C046C04670BD0000F7B50025EA
:1003D00075291068009914A611D0C046C04600289F
:1003E00002DA404211A608E0009909688A0701D59F
:1003F0000FA602E0490704D50EA6012501E0C0467C
:10040000C046009F0024243704E000F065FA303134
:100410003955641C0028F8D12B46324621460098F5
:1004200000F096F9FEBD0000000000002D00000065
:100430002B0000002000000070B5064600F084F993
:100440000468054630460A22002100F00DFA2C60AF
:1004500070BD30B505460B462A461C781078521CF4
:100460005B1C002801D0A042F7D0002C03D000284C
:1004700002D06D1CEFE7284630BD0000034670B582
:1004800002460B439B070FD10E4CE60100E008C269
:1004900008C91D1B9D433542F9D0D9B21170521CB9
:1004A00000290DD01B0AF8E70B78491C1370521C69
:1004B000002B05D00B78491C1370521C002BF3D174
:1004C00070BD00000101010130B5441C03E001785A
:1004D000401C00290DD08107F9D10B4BDD0104C868
:1004E000D11A91432940FAD0001B0A0603D0C01E3E
:1004F00030BD001B30BD0A0401D0801E30BD090292
:10050000FCD0401E30BD000001010101421E5378A5
:10051000521C002BFBD10B78491C1370521C002B72
:10052000F9D17047F8B5042A2CD3830712D00B7881
:10053000491C0370401C521E83070BD00B78491CCA
:100540000370401C521E830704D00B78491C0370B3
:10055000401C521E8B079B0F05D0C91ADF002023B9
:10056000DE1B08C90AE0FFF703FEF8BD1D4608C9F7
:10057000FD401C46B4402C4310C0121F042AF5D283
:10058000F308C91A521EF0D40B78491C0370401CA2
:10059000521EEAD40B78491C0370401C012AE4D493
:1005A00009780170F8BD01E004C0091F0429FBD2DD
:1005B0008B0701D50280801CC90700D002707047EC
:1005C00000290BD0C30702D00270401C491E02292B
:1005D00004D3830702D50280801C891EE3E7002232
:1005E000EEE70022DFE7002203098B422CD3030A47
:1005F0008B4211D300239C464EE003460B433CD470
:10060000002243088B4231D303098B421CD3030AD7
:100610008B4201D394463FE0C3098B4201D3CB0107
:10062000C01A524183098B4201D38B01C01A524137
:1006300043098B4201D34B01C01A524103098B423B
:1006400001D30B01C01A5241C3088B4201D3CB0026
:10065000C01A524183088B4201D38B00C01A524109
:1006600043088B4201D34B00C01A5241411A00D2B9
:1006700001465241104670475DE0CA0F00D0494222
:10068000031000D34042534000229C4603098B4292
:100690002DD3030A8B4212D3FC22890112BA030A1A
:1006A0008B420CD3890192118B4208D3890192119C
:1006B0008B4204D389013AD0921100E08909C30921
:1006C0008B4201D3CB01C01A524183098B4201D323
:1006D0008B01C01A524143098B4201D34B01C01A0E
:1006E000524103098B4201D30B01C01A5241C30886
:1006F0008B4201D3CB00C01A524183088B4201D3F5
:100700008B00C01A5241D9D243088B4201D34B000F
:10071000C01A5241411A00D20146634652415B1051
:10072000104601D34042002B00D549427047634632
:100730005B1000D3404201B50020C046C04602BD58
:100740007047704770470000004870472C15002024
:10075000FFB504460D4681B024300090216888061C
:1007600004D51022E0699143216000E00120A842F5
:1007700001DD471B00E000270498A1697A191018D1
:10078000081AA0612078C00602D42046C046C046A0
:10079000002608E003986268A168805D9047206A9F
:1007A000401C761C206204988642F3DB2078C00649
:1007B0000AD52046C046C04606E06268A1683020DF
:1007C0009047206A401C206238467F1E0028F4DCD7
:1007D00007E000986268A168405D9047206A401C6D
:1007E000206228466D1E0028F3DC2046C046C04625
:1007F0002078000602D5022005B0F0BD0120FBE7FD
:1008000001694A1C02610878704700B58FB00291F7
:100810000021059105490193794403911146049003
:100820006846FFF773FD0FB000BD0000E5FFFFFF56
:100830000A681070521C0A60704710B54369002B9B
:1008400002D0C046C04601E0FFF796FD012010BD72
:100850001278014624310A7000224A700122ECE726
:1008600011680022D243E8E7F7B50F460026009C46
:100870002578641C002D05D000F046F80068405D26
:10088000C007F5D12B2D02D02D2D18D0641E39466E
:10089000029A204600F040F8002F04D03968A142A7
:1008A00001D1009939607105022400290BDA404218
:1008B000002803DDFFF748FF0460A007FEBD01200C
:1008C00080020643E3E70028F8DAFFF73DFF046003
:1008D0000048FEBDFFFFFF7F01468008081A02099D
:1008E0001018020A1018020C1018C0088200121802
:1008F0005200891A01E0401C0A390A29FBD27047CC
:10090000004870472C15002010B500F077F8001D46
:1009100010BD00BF69800000F7B5154682B0002702
:10092000029C2078641C0197302802D0002D15D03D
:1009300015E020780127641C782804D0582802D0BC
:10094000002D09D00BE0002D01D0102D07D120780B
:1009500000271025641C02E0082500E00A25002677
:10096000009610E000990127694308182946714351
:10097000020C80B200908E183804864201D3012008
:1009800001902078641C294600F03CF80028E9DA40
:100990000398002805D0002F01D0641E00E0029CBF
:1009A00004600198002806D0FFF7CEFE0221016006
:1009B000C81E05B0F0BD009930040843F9E775463C
:1009C000FFF79EFFAE46050069465346C008C000CB
:1009D000854618B020B5FFF7F1FB60BC0027490839
:1009E000B6460026C0C5C0C5C0C5C0C5C0C5C0C5C7
:1009F000C0C5C0C5403D49008D467047004870479E
:100A00004C1500203A2800D23038202302469A4361
:100A1000412A01D310463738884201D30020C04311
:100A2000704710B50446C046C0462046FFF799FB04
:100A300010BD0000024670B50A4392072AD11E4D30
:100A4000EE0104C808C9541B9443344017D0D0B2F7
:100A5000D9B2401A2106014310D190B299B2401A7E
:100A6000210401430AD110021902000A090A401A9E
:100A70002102014302D1100E190E401A70BD9A4294
:100A8000DFD010BA19BA884201D9012070BD002008
:100A9000C04370BD02780B78401C491C002A09D065
:100AA0009A4207D102780B78401C491C002A01D0D9
:100AB0009A42EFD0D01A70BD0101010101491820FE
:100AC000ABBEFEE726000200704730B58C180278F6
:100AD000401C13071B0F01D10378401C120906D1DB
:100AE0000278401C03E00578401C0D70491C5B1E19
:100AF000F9D101E00B70491C521EFBD1A142E6D393
:100B0000002030BDF8B504460020009020688168C0
:100B10008907890F012905D10168C90731D1C16849
:100B200009042ED48168184A102611400125002995
:100B30001AD1816829438160154814490068FFF77C
:100B400052FD00E0401E00900028FBD100F074FB35
:100B5000074611E000F070FBC01B02280CD920688A
:100B60000068C043C00707D0A06B3043A063E06BB0
:100B70002843E0630120F8BD20680068C043C00737
:100B8000E8D10020F8BD00001700008040420F00AF
:100B90005C02002072B6FEE7F8B50025044620345A
:100BA0000095227D012A3BD00122227503689E68B0
:100BB000760776D43F4F4E68BE4254D09E6A0F7877
:100BC000BA4016439E620123C26A1B079A421FD095
:100BD000012A1DD0022A1BD0032A19D0042A17D0BB
:100BE000052A15D0062A13D0072A11D002688B686F
:100BF00056697607760FB3420AD05369DB08DB00EB
:100C00005361006842690B7A5B075B0F1A434261CC
:100C10000868102806D0112804D0122802D045E018
:100C20000220F8BD244A9368102809D011280AD060
:100C300001200006034393600868102806D035E0C1
:100C40000120C005F6E701208005F3E71C481B4999
:100C50000068FFF7C8FC0A21484300E0401E0090EE
:100C60000028FBD122E0986A0E78B2409043986247
:100C70000868102803D0112801D0122816D10E4977
:100C80008A68102807D0112808D001200006824366
:100C90008A600BE005E00120C005F8E7012080052F
:100CA000F5E7816B20221143816301250020207527
:100CB0002846F8BD011000000027014040420F0007
:100CC0005C0200200068006C70470000F8B5002648
:100CD0000446002805D0A06B25462035002802D008
:100CE00007E00120F8BD0020E0632875204600F0F1
:100CF000A9F8A06B1022C006002870DB206881686C
:100D000049076CD4A16B1301994302231943A163D2
:100D100081688907890F012905D10168C9070FD1A9
:100D2000C16809040CD4C16818239943A368194306
:100D3000C1602068016963688900890819430161FD
:100D40002068C1683D4B1940C160207E617E8003F0
:100D5000C9030843A17E4B031843A36A012B02D0A9
:100D600001231B0300E000231843E36818432369B1
:100D7000022B09D0002318432B79E57E5B00184332
:100D80000123012D02D00AE00423F4E7002927D033
:100D9000A16B20252943A163E16B1943E163E1695C
:100DA0000D46FF3DC23D02D0256A29430843216814
:100DB000CD680543CD600125E16A2D07A94213D016
:100DC000012911D002290FD003290DD004290BD0FD
:100DD000052909D0062907D0072905D010E028E009
:100DE000012109040843DAE721684D69ED08ED00A7
:100DF0004D6121684D69A78D7F077F0F3D434D6190
:100E00002168C9680E4D2940814207D10020E06366
:100E1000A06B80088000401CA06308E0A06B02214A
:100E200088431043A063E06B1843E063012630461B
:100E3000F8BDA06B1043A063F8E700001902FEFFA5
:100E4000E7FF3F8310B586B0044614216846FFF7DC
:100E5000C8FB10492068884219D10F4882694115A2
:100E60000A43826182690A400592426909020A4383
:100E700042614069084005900120009003200190E4
:100E80000020029009206946C00600F0EFF806B085
:100E900010BD00000024014000100240F8B50446D7
:100EA0004069254620350E4608280BD02068C068CA
:100EB000C00709D0A06B20210843A063002028753B
:100EC0000120F8BD082700E00C2700F0B5F90090DC
:100ED00015E0701C13D0002E05D000F0ADF900997C
:100EE000401AB0420BD920680068384207D1A06B85
:100EF00004210843A063002028750320F8BD206862
:100F000000683842E5D0A06B012149020843A06384
:100F10002068C16809058A0F0C21002A1AD1A27E17
:100F2000002A17D10268120714D5826853070122DC
:100F3000002B08DB43688B434360A06B130298438C
:100F40001043A06306E0A06B20231843A063E06B6E
:100F50001043E063207E002801D12068016000205A
:100F6000F8BD000070B50446216800208968490773
:100F700021D425462035297D01291CD00121297540
:100F8000617E012904D02046FFF7BCFD002811D165
:100F9000A16B0A4A1140FF2201321143A1630021D3
:100FA000E163297522681C21116021688A68042385
:100FB0001A438A6070BD022070BD0000FEF1FFFF81
:100FC00030B5014620314B780022022B04D0042397
:100FD00083630A70012030BD03681C680E25AC4392
:100FE0001C6003681C68640864001C600123056CB5
:100FF0001C46C06BAC4044604B700A70002030BD92
:1010000070B50024014620314A78022A03D0042119
:101010008163012416E0026813680E25AB43136058
:10102000026813685B085B0013600122056C1346BD
:10103000AB40C56B6B604A7000220A70416B00299F
:1010400000D08847204670BD70B5044600F0F4F823
:101050000546601C02D004480078241800F0ECF823
:10106000401BA042FAD370BD50020020F8B5002307
:1010700003240125BAE02E469E40B44632407CD07F
:101080000E79B607B60F012E01D0022E17D1866851
:101090002746B6465E00B74000967646BE43B64643
:1010A000CF68009EB74076463743876046686746FC
:1010B000BE430F79FF06FF0F9F40374347600E790D
:1010C000F643B6070ED0C6682746B4465E00B6465D
:1010D000B7406646BE43B4468F687646B74066461C
:1010E0003743C7600E79B607B60F022E14D1DE085B
:1010F000B60036180096366A5F07B446FE0E0F2714
:10110000B646B7406646BE43B4460F697646B7401A
:1011100066463743009E376206682746B4465E003F
:10112000B646B7406646BE430F79B446BF07BF0F09
:101130007646B7406646374307604E68B603B60F3B
:1011400053D02D4FBE692E43BE61BE699F08F6077E
:10115000F60F2A4EBF00BE190096B6680F27B44698
:101160009E07360FB646B7406646BE430927FF06C0
:10117000B446B84202D1002710E036E0204FB84212
:1011800001D101270AE01F4FB84201D1022705E033
:101190001D4FB84201D1032700E005277646B7402E
:1011A00066463743009EB760184E36684F689643D0
:1011B000FF0300D51643154F3E607E684F68964387
:1011C000BF0300D51643114F7E60BE684F6896433B
:1011D000FF0200D516430D4FBE60FE684F68964370
:1011E000BF0200D51643094AD6605B1C0A68164642
:1011F000DE4000D03FE7F8BD001002400000014093
:101200000004004800080048000C004800040140A9
:101210000069084000D001207047426913460B4026
:101220001B0491430B4383617047002A01D0816105
:101230007047816270470000014880687047000075
:101240005002002070B5024640325378202B1CD14A
:101250001378012B19D001231370242454700468CF
:1012600025689D432560046825681E03B5432560F5
:10127000046825680D432560006801681943016012
:10128000202050700020107070BD022070BD70B51D
:10129000024640325378202B1BD11378012B18D0F3
:1012A000012414702423537003681D68A5431D6036
:1012B00005682B680F263602B343090219432960DB
:1012C00000680168214301602020507000201070E8
:1012D00070BD022070BD000070B5040006D0254628
:1012E000403568780026002802D005E0012070BD56
:1012F0002E70204600F02AFA2420687020680168C9
:101300004908490001600F21606809068843216887
:10131000086121688A680120C00382438A60E1680D
:101320000129A16808D0212292021143226891600C
:10133000E168022902D005E00143F7E701212268B4
:10134000C902516021684A680F4B1A434A602168FC
:10135000CA688243CA60616920690843A1690902B9
:1013600008432168C860216AE06908432168086071
:1013700020680168012211430160666420206870C2
:101380002663AE70002070BD00800002FFB50446E9
:10139000002083B02546403501906A78202A74D118
:1013A00022689269D24312047BD52A78012A78D028
:1013B00001222A7024226A7060648F05BF0DE068E4
:1013C00001280BD00520C00201213818890288436A
:1013D00021684860FFF730FF06460CE03248F3E72B
:1013E0000698401C07D0FFF727FF811B0698814213
:1013F00019D8002817D02168886989698006C00F2C
:10140000C906C90F0843EBD020688069069BC0431A
:10141000C006009617D500222021204601F00AFCC4
:10142000002830D107E020206870616C01436164BE
:101430000020287027E021682020C8616870002003
:10144000287007B0F0BD00222021204601F0F2FBF9
:10145000002818D121681020C86121682020C861A7
:1014600001990598814214D12068416801229203B4
:10147000114341600096002220212046069B01F086
:10148000D9FB002802D00120DBE70AE021682020F8
:10149000C8610198401C01460190059881428ED395
:1014A000C1E70220CDE7000000200002FFB505469D
:1014B00004464035687883B0202875D10C98002800
:1014C00014D00D98002811D0287801286CD0012064
:1014D0002870FFF7B1FE0746012200901923D103BF
:1014E000204601F0A7FB002874D103E00120400250
:1014F00060646FE0222068704020A8700026666457
:101500000C9860620D98608566630E980090019754
:1015100004A90EC9204601F019FB002801D02E7045
:1015200058E0618D3448FF2905D9FF222285012327
:101530001B06009006E0618D21850090208D01231F
:10154000C2B25B062046049901F060FB00970022BE
:10155000042120460E9B01F06DFB00283AD1206843
:10156000406A616A0870606A401C6062208D401E9B
:1015700081B22185608D401E6085608D00281FD05E
:1015800000291DD100970022802120460E9B01F0EA
:1015900051FB00281ED1608DFF2806D9FF2222852D
:1015A00001231B06009607E024E0608D208500964D
:1015B000208D0123C2B25B062046049901F026FB70
:1015C000608D0028C2D13A4620460E9901F059FBA1
:1015D000002802D0012007B0F0BD20682021C161A1
:1015E00020684268054B1A4042606970AE702E70E8
:1015F0000020F0E70220EEE70024008000E800FE73
:10160000FFB5054604464035687883B0202872D17E
:101610000C98002814D00D98002811D028780128A3
:1016200069D001202870FFF707FE074601220090CD
:101630001923D103204601F0FDFA002871D103E0FF
:101640000120400260646CE0212068704020A87096
:10165000002666640C9860620D98608566630E983B
:101660000090019704A90EC9204601F09FFA0028B6
:1016700001D02E7055E0608DFF2805D9FF2222850C
:1016800001231B06009606E0608D20850096208DC4
:101690000123C2B25B062046049901F0B7FA3A462C
:1016A00020460E9901F013FB00283AD1606A2168A8
:1016B00000788862606A401C6062608D401E6085B0
:1016C000208D401E80B22085618D00291FD000280A
:1016D0001DD100970022802120460E9B01F0AAFA1E
:1016E00000281ED1608DFF2806D9FF222285012304
:1016F0001B06009607E024E0608D20850096208D73
:101700000123C2B25B062046049901F07FFA608D86
:101710000028C4D13A4620460E9901F0B2FA0028BA
:1017200002D0012007B0F0BD20682021C1612068EF
:101730004268054B1A4042606970AE702E700020FE
:10174000F0E70220EEE7000000E800FE10B586B0EA
:10175000044614216846FEF744FF13492068884276
:101760001FD1124C616901208004014361616169EC
:10177000014003200591800200901220019000207A
:101780000290032003900120049069460848FFF767
:101790006DFCE169012080050143E161E1690140DF
:1017A000059106B010BD0000005800400010024036
:1017B0000004004870B504000FD021681548086087
:1017C00021681548086003CC41602068083C216806
:1017D0008860FFF731FD05460CE0012070BDFFF782
:1017E0002BFD401B272805D92068C068400701D081
:1017F000032070BD2068C0684007F0D120680269EE
:10180000E1688A4201D0016101E0044901600020E1
:1018100070BD0000CCCC000055550000AAAA000005
:10182000006802490160002070470000AAAA000079
:101830000248816802788918816070475002002050
:1018400010B506480168102211430160032000F022
:1018500007F800F027F8002010BD0000002002402B
:1018600070B504460D4D7D202978C000FEF7BBFE03
:1018700001460B480068FEF7B6FE00F04BFB00285F
:1018800009D1042C07D200222146401E00F02AF87C
:1018900000206C6070BD012070BD0000500200206F
:1018A0005C02002008B5084881690122114381616A
:1018B000816911400091C26901040A43C261C06993
:1018C0000840009008BD000000100240002805DB21
:1018D000C106C90E01208840014908607047000018
:1018E00000E100E010B501F03DFF10BDF8B5054680
:1018F0000068394CC00352D5E0690026C00007D407
:10190000E16920040143E161E169014001260091A0
:1019100032480168C90510D401688215114301607D
:10192000FFF78AFC074604E0FFF786FCC01B64282B
:1019300024D82A480068C005F6D5206A03273F024C
:10194000384020D06968394081421CD0206A226A20
:10195000B843012109040A432262226A8A432262AF
:101960002062C0070FD0FFF767FC009008E0FFF788
:1019700063FC0099411A1A48814201D90320F8BD3D
:10198000206A8007F3D5206A6968B843084320625B
:10199000002E04D0E169012000078143E16128782D
:1019A000C00705D0206BA968800880000843206329
:1019B0002878800605D5206B10218843E968084304
:1019C00020632888400505D5206B4021884329697C
:1019D000084320630020F8BD001002400070004062
:1019E00088130000F8B50F46060059D03A4D286814
:1019F000C007C00FB84209D22868400840003843E9
:101A000028602868C007C00FB84249D13068334CFD
:101A100081070CD5400704D56068072109020843F7
:101A200060606068F0218843B16808436060307886
:101A3000C00726D0706801280ED0216802280ED079
:101A4000890700292CDA61688908890001436160EF
:101A5000FFF7F2FB00900DE021688903F1E78901AF
:101A6000EFE7FFF7E9FB0099411A1D48814201D9D0
:101A70000320F8BD60680C21084071688900884225
:101A8000EFD12868C007C00FB8420BD928684008BA
:101A90004000384328602868C007C00FB84201D012
:101AA0000120F8BD3078400706D56068072109029B
:101AB0008843F1680843606000F028F86168094ACB
:101AC0000906090F515CC840074908600320FFF769
:101AD000C7FE0020F8BD00000020024000100240B8
:101AE00088130000A88900085C020020044805490A
:101AF00000684968044A4905490F515CC84070476D
:101B00005C02002000100240B889000810B514A340
:101B10000FCB88B06C460FC415A30FCB0FC4184A67
:101B200051680C200B4603401648042B16D0082B96
:101B300014D18B021B0F6C46E45CD26A04AB120713
:101B4000120F9A5CC90305D500231946FEF748FB1E
:101B5000214601E020460C4901F0ECFD08B010BD23
:101B600002030405060708090A0B0C0D0E0F1010DE
:101B70000102030405060708090A0B0C0D0E0F10DD
:101B80000010024000127A0000093D00FEB504007A
:101B900070D02078DC4DC0074AD068680007800FFD
:101BA000012807D068680007800F022809D16868FB
:101BB000C00306D5286880033AD560680028E7D0BE
:101BC00036E06168012914D001208004002901D089
:101BD000052914D02A68012109048A432A6029684A
:101BE000814329606068002816D0FFF725FB064670
:101BF0000EE028680121090408432860F2E72968FB
:101C000001432960F5E7FFF717FB801B64286ED8B6
:101C100028688003F7D50BE0FFF70EFB064604E0CB
:101C2000FFF70AFB801B6428F1D828688003F7D4EB
:101C300020780126800700283CDA68680007800FBA
:101C400007D068680007800F022809D16868C003C0
:101C500006D42868800716D5E06801280AD112E06A
:101C6000E0680028286816D030432860FFF7E4FABF
:101C7000074605E043E1FFF7DFFAC01B0228C6D89C
:101C800028688007F7D52868F82188432169C900AA
:101C9000084328600EE0400840002860FFF7CCFAB7
:101CA000074604E0FFF7C8FAC01B0228AFD828682F
:101CB0008007F7D42078000722D5E0690028686AF9
:101CC0000ED030436862FFF7B7FA074604E0FFF72B
:101CD000B3FAC01B02289AD8686A8007F7D50FE0CC
:101CE000400840006862FFF7A7FA074605E09DE05C
:101CF000FFF7A2FAC01B022889D8686A8007F7D4C8
:101D0000207804274007002860DA00200190E86965
:101D1000C00008D4E969B8060143E961E9690140F6
:101D200001200091019079480168C90511D401682A
:101D3000821511430160FFF77FFA009005E0FFF77D
:101D40007BFA0099401A642870D870480068C00572
:101D5000F5D5A06801280AD0002801D0052810D0A8
:101D6000286A400840002862286AB84301E0286ACF
:101D700030432862A068002812D0FFF75DFA009077
:101D80000AE0286A38432862F1E7FFF755FA00991C
:101D9000411A5F48814249D8286A8007F5D50DE08D
:101DA000FFF74AFA009006E0FFF746FA0099411A59
:101DB000574881423AD8286A8007F5D4019800280C
:101DC00004D0E969012000078143E9612078C00659
:101DD00035D5606901280CD0401D686B23D038438D
:101DE0006863686B400840006863FFF725FA0646A1
:101DF00022E0686B38436863686B30436863FFF7C1
:101E00001BFA064604E0FFF717FA801B02285BD88E
:101E1000686B8007F7D5686BF8218843A169C90012
:101E2000084368630BE0B8436863F4E74CE0FFF7EE
:101E300003FA801B022847D8686B8007F7D4206A12
:101E400000285ED069680907890F022942D001265F
:101E500036060228286805D0B0432860FFF7ECF961
:101E6000044633E0B0432860FFF7E6F9074604E094
:101E7000FFF7E2F9C01B022826D828688001F7D4B2
:101E8000E86AE16A000900010843E862616AA06A41
:101E9000084369683D22120491430843686028683A
:101EA00030432860FFF7C8F9044604E0FFF7C4F99F
:101EB000001B022808D828688001F7D521E0FFF729
:101EC000BBF9001B022801D90320FEBD2868800150
:101ED000F5D416E00128F8D06868E96A01221204F6
:101EE000636A02409A420AD10907E26A090F9142E5
:101EF00005D10F2189040840A16A884201D0012040
:101F0000FEBD0020FEBD0000001002400070004039
:101F100088130000094910B5401E884201D90120EC
:101F200010BD074C60610321081F01F01BFC00205D
:101F3000A06107202061002010BD0000FFFFFF000E
:101F400000E000E070477047F0B502462032137F92
:101F5000012B21D001251577022353770668746879
:101F6000B3687027BC430F682743776000680B4C49
:101F7000A04208D0AC07A04205D0094CA04202D034
:101F8000084CA04204D180244968A34319438160CE
:101F9000557700201077F0BD0220F0BD002C0140E5
:101FA000000400400040014070B5040005D0254603
:101FB0002035687F002802D006E0012070BD002097
:101FC0002877204600F014F802206877211D206849
:101FD00001F04CF801204034A071A877E877207018
:101FE0006070A070E070207160716877002070BD33
:101FF00008B50068094988420FD109488269C114AF
:102000000A438261806900220840009002210D206D
:10201000FFF768FC0D20FFF759FC08BD002C0140BC
:1020200000100240014620314A7F012A01D00120E0
:10203000704702224A770268D36801210B43D360BC
:1020400000680B4A904208D08A07904205D0094A9E
:10205000904202D0084A904204D182685207520F3F
:10206000062A02D002680A4302600020704700007E
:10207000002C01400004004000400140F8B5054636
:1020800004462035287F0026012817D00120287714
:1020900002206877226890687727FF23B8431B02E5
:1020A000984390600868502838D00EDC20284FD024
:1020B00006DC00284CD010281ED149E00220F8BDD3
:1020C000302845D0402817D13AE060282ED070281B
:1020D00019D001221203801A0FD090420CD1CB6884
:1020E0004A688968206801F00BF82068816801223D
:1020F00092031143816000E00126012068770020EF
:1021000028773046F8BDCB684A688968206800F0B7
:10211000F7FF2168886838438860EEE7CA68496835
:10212000206801F000F85021206806E0CA6849687C
:10213000206801F009F86021206800F0ECFFDCE77E
:10214000CA684968206800F0EEFF40212068F4E783
:10215000226801461046F0E7704770B504460068F3
:1021600001690025C9438907002915DBC168C943F6
:10217000890711D4E91E0161012020772068806958
:102180008007204602D0FFF7E7FF04E000F096F852
:10219000204600F094F8257720680169C943490773
:1021A00017D4C168C943490713D40421C943016145
:1021B00002202077206880698005800F204602D0A9
:1021C000FFF7CAFF04E000F079F8204600F077F846
:1021D000257720680169C943090716D4C168C94336
:1021E000090712D40821C94301610420207720681F
:1021F000C0698007204602D0FFF7AEFF04E000F080
:102200005DF8204600F05BF8257720680169C94336
:10221000C90617D4C168C943C90613D41021C943DC
:102220000161082020772068C0698005800F204662
:1022300002D0FFF791FF04E000F040F8204600F0E4
:102240003EF8257720680169C943C90708D1C168EC
:10225000C943C90704D1891E0161204600F030F846
:1022600020680169C943090609D4C168C943090640
:1022700005D48021C94301612046FFF763FE206831
:102280000169C943490609D4C168C943490605D44F
:102290004021C9430161204600F0C0F8206801696F
:1022A000C943890609D4C168C943890605D42021D8
:1022B000C94301612046FFF746FE70BD7047704775
:1022C000F8B50068514988427ED1514D8E15E86AB3
:1022D000002809D131464F48FEF79FFFA8680A2819
:1022E00002DA686B401C6863E86A4B4C022811D123
:1022F000E068002806D131464648FEF78EFF206987
:10230000401C2061E068012804D101223146414887
:10231000FEF78BFFA06A002805D1206A012802D1B0
:10232000A069401CA0613C4E8036306C012802D16F
:10233000706C401C7064B06A012802D1706A401C45
:102340007062334C8034E06E401CE066A86A401C2A
:10235000A8626068401C6060A06D401CA065B06809
:102360000128706901DB401C70613C2801DB002002
:10237000B060206F012808D108212648FEF748FFE9
:10238000012802D1306A401C3062B06B00280AD1AB
:1023900001210920C903C006FEF73AFF012802D136
:1023A000F06B401CF063FF26012720695F367F0237
:1023B000B04203DA39461748FEF72FFF2069B042D2
:1023C00006DB0122394600E01EE01248FEF72DFF31
:1023D000A8690028606B05D0012815DC206A002858
:1023E00006D009E001280FDCA86D401CA865F5E7C0
:1023F00080210848FEF711FF206A012804D101223C
:1024000080210448FEF711FFF8BD0000002C0140B8
:1024100000000020000400480001002070477047C1
:1024200070477047F8B502680446D069116896682D
:10243000A24B03401D462023002D75D0F707A04D69
:10244000FF0FBC460D402F436DD02546C707803592
:10245000002F06D0CF0504D5012717622A683A431A
:102460002A60820708D5F20706D0276802223A625E
:102470002A6804273A432A60420708D5F20706D0A3
:102480002668042232622A68022632432A60020742
:102490000AD50A461A406646324305D02668082205
:1024A00032622E6816432E60020508D54A0106D511
:1024B00001222668D20232622A681A432A602A68F8
:1024C000002A39D0800606D5880604D5616E002919
:1024D00001D020468847286821688968490602D4C7
:1024E000282108422DD0204600F0E2FE21688868AD
:1024F000400622D5EFF31080012282F310888B680A
:10250000402293438B6080F31088206F002814D002
:102510006C494163206FFEF773FD00280CD0206FDB
:10252000416B08E000E012E0850610D58D060ED55F
:10253000616EA8E020468847F8BD2046FFF771FF8E
:10254000F8BD2046FFF76DFF00202860F8BD256E1E
:10255000012D7DD1C5067BD5CD0679D51026166215
:1025600022689068254640064035002845DA216FEC
:10257000086840680004000CE8D02F8B8742E5D93A
:1025800068838869202833D0EFF31080012181F31C
:10259000108811683701B943116080F31088EFF398
:1025A0001080012181F3108821688A685208520046
:1025B0008A6080F31088EFF31080012181F3108886
:1025C00021688A684027BA438A6080F31088E367ED
:1025D00000202066EFF31080012181F3108821682C
:1025E0000A68B2430A6080F31088206FFEF7E8FCA7
:1025F000288B698B401A81B231E0288B698B401A95
:1026000081B2688B0028A1D000299FD0EFF3108001
:10261000012585F310881568FF272137BD43156014
:1026200080F31088EFF31080012282F31088226873
:1026300095686D086D00956080F31088E367002051
:1026400020666066EFF31080012282F3108800E0BC
:1026500009E022681368B343136080F310882046B2
:10266000FFF7DDFEF8BDC50208D5750206D50120CD
:10267000000510622046FFF7D3FEF8BD050606D51B
:102680000D0604D5A16E002900D053E7F8BD400621
:10269000FCD54806FAD52046EFF31081012484F3D7
:1026A000108815684024A543156081F3108883675E
:1026B0000021816600F0A5F9F8BD00000F080000B8
:1026C000200100049D32000810B5040003D0A06F63
:1026D000002802D007E0012010BD00217420015520
:1026E000204600F027F82420A067206801684908E8
:1026F00049000160204600F0B3FE0128ECD0606A7A
:10270000002802D0204600F032FD206841680922EE
:10271000D20291434160206881682A2291438160FE
:1027200020680168012211430160204600F084FD09
:1027300010BD0000F0B587B0044614216846FDF7CF
:1027400050FF264F01212668002225484904022314
:1027500003240125BE421DD18769CE10374387610E
:1027600087693740059746690E4346614069019382
:10277000084005906002009002AE34C60920694608
:10278000C006FEF773FC002201211B20FFF7AAF808
:102790001B201EE0134FBE421DD1C6690E43C66109
:1027A000C6690E40059646690E434661406901932D
:1027B000084005900C20009002AE34C609206946FE
:1027C000C006FEF753FC002203211C20FFF78AF805
:1027D0001C20FFF77BF807B0F0BD00000038014077
:1027E000001002400044004070B5C36F202B2BD175
:1027F00000290BD0002A09D0012483682403A342B6
:1028000006D10369002B03D1CB0701D0012070BD95
:10281000034660331C7D012C16D001241C75002357
:102820000366046863681B020BD5EFF31083012570
:1028300085F3108825680126B6063543256083F3A5
:10284000108800F0A7FE70BD022070BD70B5006852
:102850002E49884259D12E4C2E4A60682178115455
:10286000401C60602CA11046FDF7F3FD00250028F8
:1028700002D06068022819D027A12648FDF7E9FD9B
:1028800000283DD0206BFF26401C2D3620630128F8
:102890000ED0022810D0032813D0042815D0052804
:1028A00018D006281CD007281FD024E0656027E038
:1028B00032461849194810E0184832461549FA308E
:1028C0000BE032461349164807E0154832461149D5
:1028D000FA3002E032460F491248FDF723FE0AE0C3
:1028E000104832460B49FA30F7E7324609490E489C
:1028F000FDF718FE2563314606486560FDF76FFE5B
:10290000012203490948FFF76FFF70BD00380140FD
:1029100000000020640200200D0A00009003002047
:1029200084050020780700206C0900201014002086
:10293000FFB50446806F83B017460D4620285ED150
:10294000002D0AD0002F08D0A168C001814207D114
:102950002069002804D1E80702D0012007B0F0BDAB
:10296000204660300090007D012848D00098012169
:1029700001750020802108512120A067FEF75CFC32
:10298000264640360190378277820120A1680003F5
:10299000814202D12069002805D02F4600250099E8
:1029A0000020087511E00027F9E700228021204669
:1029B00000F03EFE002815D1002F15D02168387890
:1029C00008857F1C708A401E7082708A019B0028D7
:1029D00006980090E9D100224021204600F028FE10
:1029E000002808D00320B9E728882168C005C00D59
:1029F0000885AD1CE6E72020A0670020AEE7022096
:102A0000ACE7704710B50349C96D002901D100F04A
:102A100041F810BD0001002010B501684A68D2439A
:102A2000920507D48A68D243D20703D1921E8A60E6
:102A3000FFF7E8FF10BD10B504000FD000F010F84C
:102A4000E0688021084321680860616820690843C4
:102A5000A168084321684860002010BD012010BD16
:102A600008B50068094988420FD10948C269C114F4
:102A70000A43C261C0690022084000901146104616
:102A8000FEF730FF0020FEF721FF08BD002C0040BC
:102A900000100240C1680068016000207047FEE736
:102AA00001688A69D243920701D400228A620068D1
:102AB0008169C943C90703D081690122114381613A
:102AC00070470000F7B5044600680F468169C943A6
:102AD000C90636D44168890104D4416801229203B1
:102AE0001143416000262546403520688069C04377
:102AF000800612D5781CF8D0FEF79EFB0299401A8A
:102B0000B84201D8002FF0D1616C202001436164EC
:102B10006870AE702E700120FEBD21681020C86163
:102B200020682027C7612046FFF7BAFF2068416868
:102B3000054A11404160606C0421084360646F7075
:102B4000E7E70020FEBD000000E800FEF8B50446FF
:102B5000164615481D46DAB20090079F002320460E
:102B600000F054F83A462046069900F0B0F80028E4
:102B700018D12846F5B2012809D02168300A8862A8
:102B80003A462046069900F0A2F800280AD12068AB
:102B900085620097002240212046069B00F04AF8FB
:102BA000002800D00120F8BD00200080F8B50446C0
:102BB000164615481D46DAB2C3020090079F20460C
:102BC00000F024F83A462046069900F080F80028E4
:102BD00018D12846F5B2012809D02168300A886248
:102BE0003A462046069900F072F800280AD120687B
:102BF00085620097002280212046069B00F01AF88B
:102C0000002800D00120F8BD00200080F0B5066843
:102C1000059C7568064F600D384385438805800D17
:102C2000110408431843204305437560F0BD0000BC
:102C3000FF63FF03F8B51D4617460E46044609E03C
:102C4000681C07D0FEF7F8FA0699401AA8420BD87C
:102C5000002D09D020688169304688430FD00020BC
:102C6000B842EDD00020F8BD616C202001436164C2
:102C7000403460700020A07020700120F8BD012059
:102C8000EEE770B516460D4604460FE0324629467B
:102C90002046FFF717FF002801D0012070BDFEF786
:102CA000CBFA801BA84208D8002D06D02068806986
:102CB000C0438006EAD4002070BD616C202001432F
:102CC0006164403460700020A0702070E5E770B54A
:102CD00016460D46044611E0324629462046FFF7C7
:102CE000F1FE002801D0012070BD681C06D0FEF75F
:102CF000A3FA801BA84208D8002D06D0206880695E
:102D0000C0438007E8D4002070BD616C20200143DF
:102D10006164403460700020A0702070E3E7000020
:102D20003EB500241649174800940194029412C03D
:102D3000046004224460C260012181600474447410
:102D40008174C474FF22C232846142610246183227
:102D5000147101620838FDF7B9FF002801D0FDF7B2
:102D600019FF01200003019007200290009469469A
:102D70000448FDF711FF002801D0FDF70BFF3EBD11
:102D8000002401402C130020F0B587B014216846C0
:102D9000FDF727FC26484269012189050A43426163
:102DA00042690A400592426949110A4342614269F7
:102DB0000A400592426949000A4342614069012282
:102DC0000840059089111B48FEF72FFA00221A4986
:102DD0001848FEF72AFAFF2609270136FF060022C7
:102DE00031463846FEF721FA1448002401250090A8
:102DF00002946946019503940E48FEF737F9029450
:102E000069463846009601950394FEF72FF9E803CA
:102E10006A4631C269463846FEF728F918206A46E4
:102E200031C269460348FEF721F907B0F0BD000042
:102E300000100240000400488083000080930000DE
:102E400010B51348114901601249416000218160A9
:102E50000161416181610122C161C2600162FEF7CD
:102E60003BFA002801D0FDF795FE00210848FEF747
:102E7000E9F9002801D0FDF78DFE00210448FEF796
:102E800006FA002801D0FDF785FE10BD005800406D
:102E90006C1300205D3E302010B5084806490160E3
:102EA000052141600649C1608160FEF783FC00286E
:102EB00001D0FDF76FFE10BD00300040B8130020B8
:102EC000FF0F000010B586B000240094174801944D
:102ED0000294039404941449059401604B218901E0
:102EE000846041600461446111498461C160FFF7FD
:102EF0005BF8002801D0FDF74DFE01200003009093
:102F000069460A48FFF7BAF8002801D0FDF742FEEB
:102F1000049404A905480594FFF716F8002801D089
:102F2000FDF738FE06B010BD002C0140C81300208C
:102F30001027000010B50C480A4901604B21C90157
:102F4000416000218160C16001618161C1610C2229
:102F5000016242614162FFF7B7FB002801D0FDF733
:102F600019FE10BD003801401014002010B50C48A7
:102F70000A4901604B21C901416000218160C160A3
:102F800001618161C1610C22016242614162FFF70E
:102F90009BFB002801D0FDF7FDFD10BD0044004063
:102FA0009414002010B50A480849016000214160CE
:102FB000402181607F21C160012149020161FFF749
:102FC0003AFD002801D0FDF7E5FD10BD002C0040C2
:102FD00018150020FEE77047704710B5FEF728FC73
:102FE00010BD70B596B030216846FDF7FAFA00259D
:102FF0000C950D950E95142110A80F95FDF7F1FA7B
:10300000012419200594009001941020022606A99D
:1030100051C10003099000010A900B956846FEF724
:10302000B5FD002801D072B6FEE707200C900E9582
:1030300001210D960F950CA8FEF7D4FC002801D0B5
:1030400072B6FEE710A812951094FEF74FFC002808
:1030500001D072B6FEE716B070BD704710B50248D9
:10306000FFF77BF810BD0000C8130020F0B5026820
:103070001D4B0124A4071D4D984203D0A04201D04E
:10308000A84203D17026B2434E683243184E194FFE
:1030900098420DD0A0420BD0A84209D0164CA042B5
:1030A00006D0B04204D0B84202D0144CA04204D1A1
:1030B00003242402A243CC6822438024A2434C6907
:1030C000224302608A68C2620A688262984206D01D
:1030D000B04204D0B84202D0084A904201D10969F6
:1030E000016301214161F0BD002C0140000400405A
:1030F00000400140004401400020004000480140E1
:1031000030B58468FF252D021B021343AC430B43EB
:103110002343836030BD826870239A430A430721AA
:103120000A438260704730B5036A046A6408640029
:1031300004628469F025AC43120122430A24A343AC
:103140000B438261036230BD30B5036A1024A34390
:1031500003628469036A0F252D031203AC432243E3
:10316000A024A343090119438261016230BD10B557
:10317000818CC90707D001684A6801235B049A4320
:10318000836A1A434A60818C890707D501684A68B7
:1031900001231B049A43C36A1A434A60818C49077E
:1031A00007D501684A6801239B049A43036B1A43BD
:1031B0004A60818C090707D501684A680123DB034F
:1031C0009A43436B1A434A60818CC90607D502684B
:1031D000916801231B039943836B19439160818C90
:1031E000890607D501688A6801235B039A43C36B8C
:1031F0001A438A60818C490612D503685A680121F6
:103200000905046C8A4322435A60026C8A4207D142
:103210000268516803235B059943436C194351606D
:10322000818C090607D501684A680123DB04806C9C
:103230009A4302434A6010BDF8B504460026803028
:103240000660FDF7F9FF054620680068124F000789
:1032500009D501212B46002249052046009700F0A0
:10326000E7F900280DD12068006840070BD501213F
:103270002B46002289052046009700F0D9F9002846
:1032800001D00320F8BD2020A067E06726666034E7
:1032900026750020F8BD0000FFFFFF0110B5406A51
:1032A0000022014640314A834A82FFF7BAF810BD36
:1032B00010B5EFF31081012282F3108802681368C1
:1032C000FF242134A343136081F31088EFF31081AE
:1032D000012282F31088026893685B085B009360A8
:1032E00081F31088016E01290BD1EFF310810122C7
:1032F00082F31088026813681024A343136081F3DB
:1033000010882021C16700210166416610BD70B59B
:10331000014640318B8BC46F0268222C04D0906927
:1033200008210843906170BD928C446D1A40228040
:10333000426D921C42654A8B521E4A834A8B002A78
:10334000F1D1EFF31082012383F3108803681C6826
:10335000FF252135AC431C6082F31088EFF3108207
:10336000012383F3108803689C68640864009C60F0
:1033700082F310882022C26700224266036E012B6E
:1033800002D0FFF763FA70BD0266EFF310820123EB
:1033900083F310880468256810239D43256082F319
:1033A00010880268D469E443E40600D41362098BF0
:1033B000FFF735F870BD70B5014640318B8BC46F97
:1033C0000268222C04D0906908210843906170BDE6
:1033D000928C1A40436D1A70426D521C42654A8BA2
:1033E000521E4A834A8B002AF1D1EFF31082012347
:1033F00083F3108803681C68FF252135AC431C60EB
:1034000082F31088EFF31082012383F3108803689E
:103410009C68640864009C6082F310882022C26764
:1034200000224266036E012B02D0FFF70FFA70BD37
:103430000266EFF31082012383F310880468256885
:1034400010239D43256082F310880268D469E44309
:10345000E40600D41362098BFEF7E1FF70BD0000A3
:1034600070B5044680682169E269084361690025F6
:103470001143226808431168404B19400143116011
:1034800021684868032212039043E26810434860B1
:10349000A169206A084321688A680B231B029A43AA
:1034A00002438A6036492068884210D13548006B53
:1034B0008007800F0ED0012805D0022805D00328F0
:1034C0000AD1022109E0042107E0082105E02E4984
:1034D000884201D1002100E010210120E369C003EE
:1034E0002A4A2B4E834223D1002906D0022907D035
:1034F000042907D0082937D108E0FEF7F7FA03E0DE
:10350000104603E0FEF702FB002831D0616840005E
:103510004A088018FDF767F880B201461039B142B9
:1035200022D81B49491C01400007400F08431DE0F9
:10353000002906D0022907D0042907D0082913D171
:1035400008E0FEF7D3FA03E0104603E0FEF7DEFAE8
:1035500000280DD061684A081018FDF744F880B2C1
:1035600001461039B14201D9012501E02168C86046
:1035700000206066A066284670BD0000F369FFFF6A
:1035800000380140001002400044004000127A0060
:10359000EFFF000070B54165014640310A834A8360
:1035A00000224266012385681B03FF249D4204D14B
:1035B0000569002D31D11B4C2FE0002D29D08A83C5
:1035C00080210A502221C167EFF31081012484F386
:1035D00010880468A56801263543A56081F310882A
:1035E0008168994202D10169002918D00E494166CB
:1035F00074210A54EFF31081012282F310880068CD
:103600000268FF2321331A43026081F310880020EF
:1036100070BD0569002D00D07F248C83D0E703495D
:10362000E5E70000FF010000B73300080F33000892
:10363000FFB581B005461746044660350A9E55E041
:10364000701C53D0FDF7F8FD0499401AB04230D8F1
:10365000002E2ED020680168490747D5C069C043B5
:10366000000543D401202168C0020862EFF31080F6
:10367000012181F3108821680B68FF22A132934356
:103680000B6080F31088EFF31080012181F3108824
:1036900021688A68520852008A6080F310882020CE
:1036A000A067E0678034206000202875032005B003
:1036B000F0BDEFF31080012181F3108821680B68C1
:1036C000FF22A13293430B6080F31088EFF3108048
:1036D000012181F3108821688A68520852008A60AB
:1036E00080F310882020A067E067DDE72068C169CB
:1036F0000298884304D00020B842A1D00020D6E729
:103700000120F9E710B50248FEF78CFE10BD00005D
:103710001014002010B50248FEF784FE10BD000012
:103720009414002010B50248FFF776F910BD000090
:1037300018150020F8B5040C8BB2264682B25E4301
:103740000D0C1046370C584336048019002179417E
:1037500016466E43370C36048019794126466E436F
:103760008919F8BD8307FF22DB0E9A408907090EED
:103770009940002808DB830809489B001B1818683B
:1037800090430843186070470007000F083883080B
:1037900004489B001B18D86990430843D8617047C0
:1037A00000E400E000ED00E0F8B5CC4C0127A06893
:1037B0000026002802D0012813D06FE0C8A004F032
:1037C00099FBCBA004F096FB0025CEA004F09CF85A
:1037D0003220FDF739FC6D1C0A2DF6DDA76066630B
:1037E000F8BD606B0328FBDBC7A004F083FBCCA013
:1037F00004F080FB6420FDF727FC0122D503294655
:10380000CE48FDF712FD9620FDF71EFC002229464A
:10381000CA48FDF70AFDC820FDF716FC0122150273
:1038200009202946C006FDF700FD7D200001FDF7B7
:103830000BFC092000222946C006FDF7F6FCC04813
:10384000FDF702FCAFA004F05FF83220FDF7FCFBAF
:10385000ACA004F059F83220FDF7F6FBA9A004F063
:1038600053F83220FDF7F0FBB6A004F04DF83220FB
:10387000FDF7EAFBB6A004F047F83220FDF7E4FBC1
:10388000B5A004F041F86420FDF7DEFBB4A004F01D
:1038900031FBB648C765B648FDF7D6FB8F488F4D5C
:1038A0008068803502282DD10024FF210131A348F2
:1038B000FDF7B3FC3220FDF7C7FB641C062CF4DDDA
:1038C000ACA004F017FBB1A004F014FB83482E65F4
:1038D0000321FF244663F53481602046FDF7B4FBE5
:1038E000AFA004F011F82046FDF7AEFBAF48FDF79E
:1038F00097FFAFA004F008F82046FDF7A5FBAFA0A6
:1039000004F002F8754CA06803283AD1606B0A28CD
:1039100000DA65E7ACA004F0EDFAA8A003F0F4FF2C
:10392000286D401C286505282ADB0122D103834825
:10393000FDF77BFC9620FDF787FB01210022C903E0
:103940007E48FDF772FCC820FDF77EFB01220920AE
:103950001102C006FDF769FC7D200001FDF774FB34
:10396000FF21092000220131C006FDF75EFC7D2009
:103970000001FDF769FB7D48C7657D48FDF764FBE5
:103980006663A068042802D005280BD042E095A009
:103990002E6504F0AFFA99A003F0B6FF0520666328
:1039A000A060F8BD606B0328FBDB97A004F0A2FACF
:1039B00092A003F0A9FF6663286D401C28650A28C1
:1039C00027DB0122D1035D48FDF72FFC9620FDF790
:1039D0003BFB01210022C9035848FDF726FCC82003
:1039E000FDF732FB012209201102C006FDF71DFC84
:1039F0007D200001FDF728FBFF2109200022013175
:103A0000C006FDF712FC7D200001FDF71DFBA7603D
:103A10002E656663A0680628C3D183A004F06AFA05
:103A20004BA0666303F070FF6420FDF70DFB81A0DF
:103A300003F06AFF6420FDF707FB81A003F064FF39
:103A40006420FDF701FB83A003F05EFF6420FDF717
:103A5000FBFA86A003F058FF88A003F055FF64200E
:103A6000FDF7F2FA85A003F04FFF6420FDF7ECFAB2
:103A700085A003F049FF6420FDF7E6FA85A003F076
:103A800043FFFF20F530FDF7DFFA85A003F03CFF90
:103A90006420FDF7D9FA85A003F036FF6420FDF716
:103AA000D3FA28A003F030FF6420FDF7CDFA2AA056
:103AB00003F02AFF6420FDF7C7FA012211021F4814
:103AC000E762FDF7B2FB052060612E650A26A6605D
:103AD000E86679A004F00EFAEE66F8BD000000205A
:103AE00041394720466972737420537461727400BF
:103AF0004C6576656C313A61396720636865636B44
:103B000000000000415400004C6576656C323A615B
:103B10003967206E6F7420726573706F6E73650005
:103B20007265736574206D6F64756C65202D2063FC
:103B30006865636B20616761696E0000000400487E
:103B40008813000041542B4950523D393630300023
:103B50004154453000000000415426570000000049
:103B60005245534554204D4943524F000001002017
:103B700050C300004C6576656C323A61396720723B
:103B80006573706F6E7365206F6B00007761697489
:103B900020666F72206E6574776F726B3F3F3F00D7
:103BA00041542B47505352443D300000B81300207D
:103BB00041542B4750533D300000000041542B43EB
:103BC0005245473F000000006C6576656C333A2033
:103BD0006E6574776F726B20636865636B696E677F
:103BE000212121006C6576656C343A2073696D2063
:103BF00063617264206D6F64656C3F0041542B43B8
:103C00004F50533F0000000073696D206361726480
:103C1000206572726F72212121202D2063686563F7
:103C20006B20616761696E00636F6E666967206112
:103C30003967000041542B434D47463D3100000099
:103C400041542B43534D503D31372C3136372C30B6
:103C50002C30000041542B43504D533D224D452202
:103C60002C224D45222C224D4522000041542B434D
:103C70005343533D2247534D2200000041542B43F0
:103C80005245473D3200000041542B434C49503DC2
:103C90003100000041542B434D47443D312C34004A
:103CA00041542B434C564C3D3500000041542B539E
:103CB0004E46533D310000002A613967207265612C
:103CC0006479202D2073746172742070726F677232
:103CD000616D2A0070B5374C6069012803D0002857
:103CE00001D0062864D106220221334804F01AFDCF
:103CF00032493348FCF7C2FB32A13148FCF706FCDD
:103D000031492F48FCF7A5FB002804D16069002841
:103D100001D006284CD108220721274804F002FDD3
:103D200026492748FCF7AAFB2548FCF785FBE063FA
:103D300026A12948FCF7D6FA21492748FCF7E6FBDB
:103D4000254804F0D7F8162209211B4804F0EAFCA4
:103D50001A491B48FCF792FB20A11F48FCF7C2FA46
:103D600017491D48FCF7D2FB1B4804F0C3F8134861
:103D70001349AA38FCF782FB02F026F901206061A2
:103D80000E4818A19638FCF7ADFA03F02BFFFF257B
:103D9000F5352846FDF758F903F0E0FD03F0FEFF86
:103DA0000520606115A003F0AFFD2846FDF74CF932
:103DB00070BD000000000020C40B00205C0F00203C
:103DC000660A00200D0A00002E1200204144442003
:103DD0005553455200000000F00C00206E756D3AFE
:103DE000000000004E65772075736572206E756D5A
:103DF00062657220736176656400000041542B4354
:103E00004D47443D312C340010B5072203211B4897
:103E100004F088FC1A491B48FCF730FB1AA119482A
:103E2000FCF774FB19491748FCF713FB184C0028E2
:103E300004D16069002801D006281ED1104815A1C0
:103E40009638FCF74FFA03F0CDFE0520606121A102
:103E50002148FCF747FA02F0DDF81420FDF7F4F8EA
:103E60000B4C0320803460631CA003F04DFDFF2049
:103E7000F530FDF7E9F80020E06310BDC40B002029
:103E80005C0F0020660A00200D0A00002E120020A0
:103E9000000000204175746F20506F7765722073A9
:103EA000617665206D6F6465206F6E0D0A47505313
:103EB000205369676E616C206973206F6E2077688C
:103EC000656E2074686520636172206973206F6E6F
:103ED0000000000033000000D701002041542B43B4
:103EE0004D47443D312C3400F8B5184CE06E0228A3
:103EF0002ADB0027E7667D21C90015486761FCF7CA
:103F0000CDFF144E00257D21C9001148FCF7C6FFE6
:103F100000206F00F0530E48FCF7D4FE80B2F0533F
:103F20006169401860610220FDF78EF86D1C0A2D52
:103F3000E9DB0A216069FCF760FBA06102F062FB2B
:103F400002F074FB02F05EFBF8BD00008000002070
:103F50002C130020181200201CB5072203211C4836
:103F600004F0E0FB1B491C48FCF788FA1BA11A4827
:103F7000FCF7CCFA1A491848FCF76BFA194C0028E0
:103F800004D16069002801D0062820D116482522D6
:103F9000016F134601920091C26E0E4813A1963034
:103FA000FCF7A0F90B48963003F0A4FF0949094833
:103FB00096319638FCF762FA03F014FE0520606132
:103FC00011A003F0A1FCFF20F530FDF73DF81CBD6A
:103FD000C40B00205C0F0020660A00200D0A0000C0
:103FE0002E12002000000020000100204241545405
:103FF0004552593A256425630D0A414E54454E3ABF
:10400000256425630000000041542B434D47443D87
:10401000312C340010B51EA11E48FCF763F91EA117
:104020001C48FCF773FA1D4C6069002803D11C4939
:104030001848FCF76BFA6069062804D1184915483E
:104040001431FCF763FA6069012803D1154911485E
:10405000FCF75CFA6069022804D112490D48283146
:10406000FCF754FA10A10B48FCF750FA094803F08A
:104070004BFC7D200001FCF7E7FF052060610BA0F1
:1040800003F042FCFF20F530FCF7DEFF10BD00001E
:1040900000000000F20F0020415444000000002006
:1040A000270200204C1200203B00000041542B430B
:1040B0004D47443D312C340010B5072203211F48E1
:1040C00004F030FB1E491F48FCF7D8F91EA11D481B
:1040D000FCF71CFA1D491B48FCF7BBF91C4C0028D7
:1040E00004D16069002801D0062826D101220920C8
:1040F000D103C006FDF799F8114816A19638FCF7D0
:10410000F1F803F06FFD0520606117A11748FCF777
:10411000E9F801F07FFF1420FCF796FF0C4901201D
:104120008031FF24F534C8642046FCF78DFF10A0D1
:1041300003F0EAFB2046FCF787FF10BDC40B00200C
:104140005C0F0020660A00200D0A00002E120020DD
:104150000000002054686520436172207475726EFF
:104160006564206F6666000031000000E1010020F8
:1041700041542B434D47443D312C340010B50722A8
:1041800003211A4804F0CEFA19491A48FCF776F9C7
:1041900019A11848FCF7BAF9012109200022C90326
:1041A000C006FDF742F8124814A19638FCF79AF8B9
:1041B00003F018FD164905204861C81D0024F93098
:1041C0004464846413A1E130FCF78CF801F022FF11
:1041D0001420FCF739FF0E488030C4640EA003F0B1
:1041E00093FBFF20F530FCF72FFF10BDC40B002020
:1041F0005C0F0020660A00200D0A0000546865204C
:10420000436172207475726E6564206F6E000000E9
:10421000000000203000000041542B434D47443D36
:10422000312C340010B506220221414804F07AFAFC
:1042300040494148FCF722F9162215213C4804F078
:1042400071FA3C4908469630FCF718F9394896301F
:1042500003F050FE39493848FCF7FBF8002866D0D7
:10426000344837A19630FCF7F4F800285FD01422C8
:104270000C212F4804F056FA2E492F48FCF7FEF87F
:104280002E492D489631FCF7E4F800284FD0222221
:104290001521274804F046FA28482649EA30FCF759
:1042A000EDF82648EA3003F025FE0B2207212048CE
:1042B00004F038FA1F492048FCF7E0F81E491F486F
:1042C000FCF7DCF81B491D48DC391E30FCF7D6F83A
:1042D0001A481CA14630FCF705F8184819A15A30B5
:1042E000FCF700F8154817A16E30FBF7FBFF194CDF
:1042F000012060610F4818A19638FBF7F3FF03F027
:1043000071FC01F087FE03F029FB03F047FD052057
:1043100060617D20C000E061214600208031C863DB
:1043200018A003F0F1FAFF20F530FCF78DFE10BD68
:10433000C40B00205C0F0020660A00202E12002013
:104340002B0000002B3938313131313131313131ED
:1043500031000000000000204E6577207573657203
:10436000206164646564200D0A4465766963652094
:1043700070617373776F7264206368616E676564E0
:104380000000000041542B434D47443D312C340084
:10439000F8B5F94C0025E06A012600286DD1A06827
:1043A0000A286ADA01280ED1F4A1F548FCF751F881
:1043B000002808D0F3A0256103F09CFD0220A06036
:1043C000F248FDF72DFAF2A1ED48FCF742F800287B
:1043D00011D1F1A1EA48FCF73CF800280BD1F1A17A
:1043E000E748FCF736F8002805D1F3A1E448FCF7CC
:1043F00030F8002805D0F3A003F07CFD0420A06075
:104400003BE0A068052838D105220021DC4804F0F3
:1044100089F9F049F048FCF731F8F0A1EE48FCF7D3
:1044200075F8EFA1EC48FCF714F8002825D011220C
:104430000C21D34804F076F9E649E748FCF71EF86A
:10444000E6A1E548FCF762F8E7A1E348FCF701F8CC
:10445000002806D0E6A003F04DFD0620A060022053
:10446000A063E6A1DC48FBF7F4FF002805D0E5A037
:1044700003F040FD0620A663A060C7A1C048FBF77B
:10448000E8FF00280BD1CCA1BD48FBF7E2FF0028D4
:1044900005D1E0A1BA48FBF7DCFF002806D0E048D0
:1044A00045628562C562DFA003F024FDE3A1B44844
:1044B000FBF7CFFF00280BD1E4A1B148FBF7C9FF00
:1044C000002805D1E6A1AE48FBF7C3FF002802D0C3
:1044D000D3488038C560E5A1A948FBF7BAFF00289A
:1044E0000BD1E5A1A648FBF7B4FF002805D1AAA18E
:1044F000A348FBF7AEFF002803D0C9488038C66048
:1045000005619EA19E48FBF7A4FF002806D09A48AB
:1045100080300168012901D102210160DBA19848A6
:10452000FBF797FF00281CD008220621944804F0CE
:10453000F9F8A849A848FBF7A1FFA748FBF77CFFBB
:104540008D498031C860A348D2A19630FBF7CAFEDE
:10455000A048A1499630FBF7D9FF9E48963003F05A
:10456000C9FC04220021864804F0DCF899499A48E5
:10457000FBF784FFC9A19848FBF76BFF002870D0B8
:10458000E06A02286DD1C7A003F0B4FCC8A003F014
:10459000BBF90027FF210131C848FCF73EFE80210E
:1045A000C648FCF73AFE01214902C448FCF735FE33
:1045B0003220FCF749FD7F1C0A2FEBDB98480122D3
:1045C00005611102BD48FCF730FE6B4814228030B3
:1045D000466607216A4804F0A5F87E497E48FBF745
:1045E0004DFF7D4803F086FC8D497B48A731FBF7E2
:1045F00030FF002807D077487749DC38FBF73EFFCB
:10460000AFA065614CE086497348BB31FBF721FFE1
:10461000002808D06F487049DC38FBF72FFF0620D0
:104620006061ABA03CE0AE496B48FBF712FF00288D
:1046300007D068486849DC38FBF720FFA9A066610D
:104640002EE0A74964482831FBF703FF002809D072
:1046500060486149DC38FBF711FF02206061A3A0CC
:104660001EE02EE09E495C483C31FBF7F2FE00283C
:1046700008D058485849DC38FBF700FF0320606138
:104680009CA00DE0964954485031FBF7E2FE00280B
:1046900051499A4807D0FBF7F1FE0420606198A0C9
:1046A00003F028FC0DE0FBF7E9FE0520606196A011
:1046B00003F020FC914850A126300A888281498865
:1046C000C181052200212E4804F02CF841494248BE
:1046D000FBF7D4FE8EA14048FBF7BBFE002849D073
:1046E000E06A022846D1A069012804D1606E092839
:1046F00001D10A20606688A003F0FCFB6CA003F0E7
:1047000003F9474800270561FF2101316B48FCF799
:1047100084FD80216948FCF780FD0121490267483A
:10472000FCF77BFD3220FCF78FFC7F1C0A2FEBDBB4
:10473000012211026148FCF778FD20221321104864
:1047400003F0F0FF23492448FBF798FE224803F0CA
:10475000D1FB0948324980304666A7311E48FBF735
:1047600078FE002807D01C496448FBF787FE54A058
:10477000656129E12AE1D5E0000000204F4B0000EF
:10478000C40B0020613967206F6E0000B813002051
:1047900052454144590000002B435245473A2031CD
:1047A0002C31000041695F5468696E6B65725F432C
:1047B0006F2E5F4C74642E002B435245473A2032D3
:1047C0002C3100006E6574776F726B2072656164C6
:1047D000790000005C0F0020660A00200D0A00002E
:1047E0002B434F505300000034333231310000006E
:1047F00053494D3A204D43490000000034333233D1
:104800003500000053494D3A204972616E43656C92
:104810006C0000002B435245473A20322C350000F3
:10482000800100202A2A2A6D61696E206368656311
:104830006B204F4B2A2A2A2A000000002B434945AF
:10484000563A20726F616D2C203000002B43494591
:10485000563A20736572766963652C20203000001B
:104860002B435245473A2030000000002B4352456D
:10487000473A2031000000002B434945563A207347
:104880006572766963652C20203100002B435351FB
:1048900000000000414E54454E3A00002B434D5459
:1048A00000000000494E50555420534D5331000034
:1048B00041542B47505352443D30000000040048FF
:1048C000534552564552204E554D424552310000F7
:1048D000534552564552204E554D424552320000E6
:1048E0004C1200204E554D42455231004E554D421E
:1048F000455232004E554D4245523300800E002045
:104900004E554D4245523400556E6B6E6F776E00BA
:104910002B434D4752000000494E50555420534DF3
:1049200053320000FC49FD48FBF793FD002807D0F7
:10493000FA49FB48FBF7A2FD06206061F94843E015
:10494000F949F648FBF785FD002807D0F349F448FC
:10495000FBF794FDF3486661143035E0F249EF4807
:104960002831FBF776FD002808D0EC49EC48FBF72E
:1049700085FD02206061EB481C3025E0EA49E748EC
:104980003C31FBF766FD002808D0E449E448FBF71A
:1049900075FD03206061E348243015E0E249DF48FB
:1049A0005031FBF756FD0028DC49DD4806D0FBF707
:1049B00065FD04206061DB48303005E0FBF75EFDFB
:1049C00005206061D748383003F094FAD7A1DB485E
:1049D000FBF73FFD1A27002805D1D9A1D748FBF7DF
:1049E00038FD002844D0DAA003F084FA6069062874
:1049F00005D164231722DBA1E048FDF799FF606928
:104A0000002805D164231722DDA1DC48FDF790FFC3
:104A1000FF202D30FCF718FB64230D22DEA1D748C0
:104A2000FDF786FF68460770642301226946D34874
:104A3000FDF77EFF7D200001FCF706FBDAA002F007
:104A400063FF7D20C000FCF7FFFADAA002F05CFFF4
:104A5000DB48FCF7F9FADBA002F056FF7D204001AD
:104A6000FCF7F2FADA48C6657D200001FCF7ECFAA3
:104A7000D8A1B248FBF7EDFC002805D1D8A1AF487A
:104A8000FBF7E7FC002836D06069002801D0062833
:104A900031D1062805D164231722B2A1B748FDF70A
:104AA00047FF6069002805D164231722B4A1B348E9
:104AB000FDF73EFFFF202D30FCF7C6FA02F04EFF57
:104AC000CA48FBF701FD82B2FA23C849AB48FDF79B
:104AD0002FFF68460770FA2301226946A748FDF7B1
:104AE00027FFC348FCF7B0FAAFA002F00DFFFF208C
:104AF000F530FCF7A9FABFA19048FBF7AAFC002803
:104B000045D06069002801D0062840D1BBA003F041
:104B1000F1F903F059F9684607706069062805D174
:104B2000642317228FA19548FDF702FF60690028D2
:104B300005D16423172292A19048FDF7F9FEFF20CA
:104B40002D30FCF781FAB2A1A848FBF7CBFBA748B0
:104B5000FBF7BAFC82B26423A4498848FDF7E8FE5B
:104B6000684607706423012269468448FDF7E0FE29
:104B70009F48FCF769FA8CA002F0C6FE7D20000178
:104B8000FCF762FA9248C665A648FCF75DFA062271
:104B900000216A4803F0C6FD944960489639FBF746
:104BA0006DFCA1A15D48FBF754FC002809D06069A9
:104BB000002801D0062801D100F05AFF6420FCF73C
:104BC00043FA9BA15548FBF744FC002810D0E06A4B
:104BD00002280DD17E488038466697A003F08AF9F6
:104BE0005048203802F090FEFF202D30FCF72CFAC0
:104BF000774F803F786E012819D1E06A02287DD175
:104C0000012200214D4803F08DFD78494348963933
:104C1000FBF734FC8BA14148FBF71BFC002806D0B6
:104C2000FFF700FB7D20C0007D66FCF70DFAE06A0F
:104C30000228E4D16069002809D0012807D00228A1
:104C400005D0032803D0042801D00628D7D101229B
:104C500000213A487E6603F065FD64492F48963985
:104C6000FBF70CFC78A12D48FBF7F3FB002806D0DE
:104C7000FFF730F87D20C000FCF7E6F97D6673A1F0
:104C80002648FBF7E6FB002805D171A12348FBF776
:104C9000E0FB002806D002F0F3FE7D20C000FCF708
:104CA000D3F97D666BA11D48FBF7D3FB002806D026
:104CB00001F066FB7D20C000FCF7C6F97D6602228C
:104CC00000211E4803F02EFD484914489639FBF791
:104CD000D5FB61A11148FBF7BCFB002805D15FA102
:104CE0000E48FBF7B6FB002806D002F08DFD7D20B4
:104CF000C000FCF7A9F97D6659A100E0A7E10748CB
:104D0000FBF7A7FB002805D156A10448FBF7A1FB40
:104D1000002800D0A8E0AEE03B020020660A002098
:104D2000800E0020D04800084C1200206E65747779
:104D30006F726B207265736574000000C40B0020F5
:104D40004E6574776F726B20726573657400000036
:104D50006175746F207265736574206E6574776F0A
:104D6000726B000041542B434D47533D2230393183
:104D70003134373634383036220D0A001014002012
:104D800041542B434D47533D22303933373234326F
:104D900035303836220D0A005245534554204E45D1
:104DA00054574F524B00000041542B434D47443D54
:104DB000312C340041542B4346554E3D3000000009
:104DC0008813000041542B4346554E3D31000000EE
:104DD00000010020696E666F726D6174696F6E000C
:104DE000496E666F726D6174696F6E00F20F00201C
:104DF000B80B0000656570726F6D00002A2A2A45A5
:104E00004550524F4D2053415645442A2A2A00000E
:104E1000454550524F4D20434F4E464947204F4B3A
:104E20000000000050C30000434F4E4649470000B9
:104E30002B434945560000004349455620534D53E6
:104E40000000000052000000410000004C00000083
:104E50006C0000004300000053310000733100007B
:104E6000533200007332000002F06EFC7D20C0005F
:104E7000FCF7EAF87D66FEA1FE48FBF7EAFA002897
:104E800005D1FDA1FB48FBF7E4FA002806D003F0AA
:104E900069FA7D20C000FCF7D7F87D66F7A1F548D8
:104EA000FBF7D7FA002805D1F5A1F248FBF7D1FAB4
:104EB000002806D003F0F0F97D20C000FCF7C4F80C
:104EC0007D66F0A1EB48FBF7C4FA002805D1EEA1FE
:104ED000E848FBF7BEFA002806D003F0B9FA7D20B7
:104EE000C000FCF7B1F87D66E8A1E248FBF7B1FA33
:104EF000002805D1E6A1DF48FBF7ABFA002806D071
:104F0000FEF782FF7D20C000FCF79EF87D66E1A1E0
:104F1000D848FBF79EFA00280BD1DFA1D548FBF754
:104F200098FA002805D1DDA1D248FBF792FA0028B3
:104F300006D0FFF723F97D20C000FCF785F87D66D9
:104F4000D7A1CC48FBF785FA00280BD1D5A1C948D9
:104F5000FBF77FFA002805D1D3A1C648FBF779FA01
:104F6000002806D0FFF7A8F87D20C000FCF76CF8F9
:104F70007D66CEA1BF48FBF76CFA00280BD1CCA10F
:104F8000BC48FBF766FA002805D1CAA1B948FBF76F
:104F900060FA002806D0FEF7DFFF7D20C000FCF796
:104FA00053F87D66C4A1B348FBF753FA002806D036
:104FB00003F036FB7D20C000FCF746F87D66BFA1FC
:104FC000AC48FBF746FA002806D003F0C5FA7D206E
:104FD000C000FCF739F87D66B9A1BC48FBF739FA87
:104FE00000282BD002F0A2FAB948FCF72DF80122D4
:104FF000D103B848FCF719F99620FCF725F80121F0
:105000000022C903B348FCF710F9C820FCF71CF8CC
:10501000FF21092000220131C006FCF706F97D209E
:105020000001FCF711F8012209201102C006FCF76B
:10503000FCF8A948C665A948FCF706F8A8A1A3484A
:10504000FBF707FA002802D0FEF7E4FF7D66A6A171
:105050009E48FBF7FEF900280FD0A54802F054FC4B
:105060007D20C000FBF7F0FF6420FBF7EDFFA1A05F
:1050700002F040FFA1A002F047FCA2A19348FBF779
:10508000E8F9002871D013221221904803F04AFB5E
:105090009E497848FBF73AFA9DA17648FBF7D9F983
:1050A000002809D09BA002F025FF9EA17148FBF7C4
:1050B00019F91D2214210EE09CA16E48FBF7C9F9D5
:1050C000002812D09AA002F015FF9CA16948FBF7B6
:1050D00009F91E2212217D4803F024FB8B49654803
:1050E000FBF714FA634802F005FF95496148FBF7A6
:1050F000B0F9002813D193495E48FBF7AAF90028BC
:105100000DD190495B482831FBF7A3F9002806D15F
:105110008B4958481431FBF79CF9002825D08AA008
:1051200002F0F2FB89A002F0E5FE6B488030816856
:10513000491C816002F01EFA81494E48FBF789F94B
:10514000002801D065611AE07D494A481431FBF717
:1051500080F9002801D0062010E07A494548FBF785
:1051600078F9002802D0666109E07FE0754941487E
:105170002831FBF76EF9002801D002206061564803
:1051800080308068052804DB604871A19638FBF701
:10519000A9F85148803080680A2804DA5B4851A198
:1051A0009638FBF79FF859486EA19638FBF7AEF991
:1051B00056486FA19638FBF7A9F9206D01280AD14E
:1051C0006049524852399638FBF7A0F94F486FA111
:1051D0009638FBF79BF9206D032801D000280AD1EF
:1051E00058494A48A2319638FBF790F9474867A1D9
:1051F0009638FBF78BF94548963802F07BFE02F0B3
:10520000F1FC052060613248FBF71EFF3248803018
:10521000806805282ADB5EA002F06CFE0122D10323
:105220002C48FCF702F89620FBF70EFF0121002224
:10523000C9032848FBF7F9FFC820FBF705FFFF214A
:10524000092000220131C006FBF7EFFF7D2000019D
:10525000FBF7FAFE012209201102C006FBF7E5FF69
:105260007D200001FBF7F0FE1B489BE09EE0000064
:1052700050310000660A00207031000050320000FA
:1052800070320000503300007033000050340000D2
:10529000703400004F4E00006F6E00004F6E000033
:1052A0004F4600006F6600004F6600004254000049
:1052B00042740000627400004D3100004D32000065
:1052C000726573657420677073000000C40B002062
:1052D000B80B0000000400480001002050C300008B
:1052E00063616C6C0000000052494E4700000000F2
:1052F000B048000843616C6C0000000041542B432F
:105300004C4343002B434C43430000005C0F002000
:105310003000000063616C6C204952414E43454CA3
:105320004C0000002B393839000000003900000023
:1053300063616C6C204D4349000000002B000000AD
:10534000270200204C12002041544100617461008A
:105350002A2A2A5245534554204750532A2A2A0DB7
:105360000A0000004C6F636174696F6E3A0D0A00A9
:105370007777772E676F6F676C652E636F6D2F6D14
:105380006170732F706C6163652F00000D0A00005F
:105390002A2A2A5245534554205365727665722A4B
:1053A0002A2A0000C6659248FBF74EFE91A1944858
:1053B000FBF74FF800280AD0A069012807D191A077
:1053C00002F098FD9448406D002800D1256693A115
:1053D0008B48FBF73EF8002804D0A069012801D1D2
:1053E0000520606692A18648FBF733F8002804D0B8
:1053F000A069012801D1052060668FA18048FBF7D4
:1054000028F8002804D0A069012801D10520606691
:105410008BA17B48FBF71DF8002804D0A069012868
:1054200001D1052060668BA17548FBF712F80028B2
:1054300004D0A069012801D1052060668BA17048C5
:10544000FBF707F8002804D0A069012801D1052046
:1054500060668BA16A48FAF7FCFF002804D0A069B7
:10546000012801D1062060668EA16548FAF7F1FF98
:10547000002804D0A069012801D1062060668EA111
:105480005F48FAF7E6FF002804D0A069012801D19F
:10549000062060668CA15A48FAF7DBFF002807D087
:1054A000A069012804D1606E092801D10A20606634
:1054B00085A15348FAF7CDFF002802D086A002F05C
:1054C00019FD8AA14E48FAF7C4FF002811D18BA11B
:1054D0004B48FAF7BEFF00280BD18CA14848FAF7D9
:1054E000B8FF002805D18DA14548FAF7B2FF002882
:1054F0003FD08EA002F0FEFC3220FBF7A5FD8E48C7
:1055000002F002FA7D20C000FBF79EFD606A401C9D
:10551000606204282DDB89A002F0ECFC8E4D012294
:10552000D1032846FBF781FE9620FBF78DFD002274
:1055300069012846FBF779FEC820FBF785FDFF21AE
:10554000092000220131C006FBF76FFE7D252D01E9
:105550002846FBF779FD012209201102C006FBF75E
:1055600064FE2846FBF770FD2B48C6652048FBF714
:105570006BFD05220021224803F0D4F877497848D2
:10558000FAF77CFF77A17648FAF7C0FF76497448AE
:10559000FAF75FFF002829D011220C21184803F0E8
:1055A000C1F86E496E48FAF769FF6EA16C48FAF7C8
:1055B000ADFF6D496A480831FAF74BFF002807D064
:1055C0006AA002F097FC02203E66A0631248C66003
:1055D000654963481C31FAF73CFF002806D065A0F6
:1055E00002F088FC3E660C48A663C660F8BD000069
:1055F00050C300006E6F74666F756E64000000002B
:10560000C40B002066697273742074696D6520652F
:1056100072726F7200000000000100204854545064
:105620002F312E31202032303020204F4B0000000F
:105630005365727665720000446174650000000075
:10564000436F6E74656E742D4C656E6774683A2096
:1056500032000000436F6E6E656374696F6E3A20AE
:105660004B6565702D416C697665000073657276D7
:1056700065723A204C69746553706565640000007A
:105680006661696C7572652C2070656C617365204C
:10569000636865636B20796F7572206E6574776FD0
:1056A000726B2100446E732C6661696C2C74727984
:1056B0002075726C00000000485454502F312E3178
:1056C00020203530300000002B434D5320455252EE
:1056D0004F523A20333231002A2A4E4F20494E5041
:1056E000555420534D532A2A000000002B434D539C
:1056F000204552524F523A20333030002B434D5305
:10570000204552524F523A20353138002B434D53E9
:10571000204552524F523A20353030002B434D45F0
:10572000204552524F523A2035380000434D532005
:105730004552524F52000000A84D0008434D5320DF
:105740004552524F522D2D2D3E2A2A2A524553455D
:10575000542A2A2A00000000000400485C0F0020A0
:10576000660A00200D0A0000E047000853494D205A
:105770004D43490053494D204952414E43454C0049
:10578000F8B5444DEC1DE86AF93402282DD12069A2
:1057900078282ADB40A002F0ADFB0122454FD6035A
:1057A00031463846FBF741FD9620FBF74DFC0022C1
:1057B00031463846FBF739FDC820FBF745FC092781
:1057C000F611FF06002231463846FBF72EFD7D20FC
:1057D0000001FBF739FC012231463846FBF725FD75
:1057E0000120E0653448FBF72FFC2A4E0027803665
:1057F0007068142802DB3068002803D03068012864
:1058000009D01DE0686E04281ADA2CA0776002F037
:105810007BF8012030607068052811DBB068401CFF
:10582000B06027A002F066FB0F203760706027A1F0
:105830002A48F3683269FAF755FD284802F05AFB06
:10584000B06803280EDB26A002F054FB28A002F06B
:105850005BF8FF20F530FBF7F7FB0120E065164809
:10586000FBF7F2FB3068022812D13760776023A083
:10587000B76002F03FFB23A002F046F8636B23A160
:105880002C483269FAF72EFD2A4802F033FB2F63C9
:10589000F8BD00000000002053494D204341524410
:1058A000204552524F52202D2D2D2D3E204E4F205F
:1058B00053494D000004004850C30000415400000B
:1058C000413947206572726F720000004241543DB9
:1058D000256420414E543A2564200000600B0020CE
:1058E0005265736574204465766963650000000045
:1058F00041542B434D47443D312C3400413947201E
:105900004F4B000041542B435351000062617474AB
:1059100065727920766F6C746167653A25642076CC
:105920002073656375726974792074696D65723A64
:1059300025647300F20F0020F8B53648354C8069B5
:1059400000258034012809D0002808D1A06D012647
:10595000FA280EDB606D002802D00AE0A565F8BDCC
:105960002DA13048A565FAF7BDFC2E4801F0CCFF0B
:105970006665A06D0A2810DB606D01280DD1A56554
:10598000E06D401CE06528A002F0B4FA22A1254891
:10599000FAF7A8FC234801F0B7FFE06D042829DBE3
:1059A00024A002F0A7FA0122D70339462748FBF7C3
:1059B0003CFC9620FBF748FB002239462348FBF7C6
:1059C00034FCC820FBF740FBFF11092000223946B8
:1059D000C006FBF72AFC7D200001FBF735FB092000
:1059E00001223946C006FBF720FC1948C665194854
:1059F000FBF72AFB206E0128B1D117A002F07AFA3A
:105A0000A5656565E56516A0256602F073FA01F0E7
:105A1000B1FDF8BD0000002041542B434F50533FCF
:105A200000000000B80D002073696D206572726F70
:105A30007200000073696D206572726F722072656A
:105A4000736574206D6963726F0000000004004884
:105A50000001002050C3000073696D206F6B0000CF
:105A60005245534554204E4554574F524B00000069
:105A7000F8B5DDA002F03EFA0F220721DC4802F063
:105A800051FEDC49DC48FAF7F9FCDB4802F032FA57
:105A9000D949DA48FAF7F2FCD848D9A17838FAF7A8
:105AA00021FCD648D6A15038FAF71CFCD8A1D94819
:105AB000FAF718FCD748D8A11430FAF713FCD548E8
:105AC000D3A11E30FAF70EFCD248D1A12D30FAF73F
:105AD00009FCCA48D1A12A30FAF704FCC748C8A17A
